{
  "contractName": "DigitalReserveWithdrawal",
  "abi": [
    {
      "inputs": [
        {
          "internalType": "address",
          "name": "_drcAddress",
          "type": "address"
        }
      ],
      "stateMutability": "nonpayable",
      "type": "constructor"
    },
    {
      "inputs": [
        {
          "internalType": "address",
          "name": "_digitalReserve",
          "type": "address"
        },
        {
          "internalType": "uint8",
          "name": "percentage",
          "type": "uint8"
        },
        {
          "internalType": "uint256",
          "name": "minAmountOut",
          "type": "uint256"
        },
        {
          "internalType": "uint32",
          "name": "deadline",
          "type": "uint32"
        }
      ],
      "name": "withdraw",
      "outputs": [],
      "stateMutability": "nonpayable",
      "type": "function"
    }
  ],
  "bytecode": "0x60a060405234801561001057600080fd5b50604051610bcc380380610bcc8339818101604052602081101561003357600080fd5b5051606081901b6001600160601b0319166080526001600160a01b0316610b6061006c600039806103d952806103fb5250610b606000f3fe608060405234801561001057600080fd5b506004361061002b5760003560e01c80636c75055f14610030575b600080fd5b61007e6004803603608081101561004657600080fd5b50803573ffffffffffffffffffffffffffffffffffffffff1690602081013560ff16906040810135906060013563ffffffff16610080565b005b60008490506000859050600061013760646101318860ff168573ffffffffffffffffffffffffffffffffffffffff166370a08231336040518263ffffffff1660e01b8152600401808273ffffffffffffffffffffffffffffffffffffffff16815260200191505060206040518083038186803b1580156100ff57600080fd5b505afa158015610113573d6000803e3d6000fd5b505050506040513d602081101561012957600080fd5b5051906104bb565b90610537565b604080517fdd62ed3e0000000000000000000000000000000000000000000000000000000081523360048201523060248201529051919250829173ffffffffffffffffffffffffffffffffffffffff85169163dd62ed3e916044808301926020929190829003018186803b1580156101ae57600080fd5b505afa1580156101c2573d6000803e3d6000fd5b505050506040513d60208110156101d857600080fd5b50511015610231576040517f08c379a000000000000000000000000000000000000000000000000000000000815260040180806020018281038252602f815260200180610afc602f913960400191505060405180910390fd5b604080517f7b123c3a00000000000000000000000000000000000000000000000000000000815233600482015260ff88166024820152905160009173ffffffffffffffffffffffffffffffffffffffff861691637b123c3a91604480820192606092909190829003018186803b1580156102aa57600080fd5b505afa1580156102be573d6000803e3d6000fd5b505050506040513d60608110156102d457600080fd5b5060200151905085811015610334576040517f08c379a0000000000000000000000000000000000000000000000000000000008152600401808060200182810382526035815260200180610a7c6035913960400191505060405180910390fd5b610340833330856105b8565b604080517f6f827c3400000000000000000000000000000000000000000000000000000000815260ff8916600482015263ffffffff87166024820152905173ffffffffffffffffffffffffffffffffffffffff861691636f827c3491604480830192600092919082900301818387803b1580156103bc57600080fd5b505af11580156103d0573d6000803e3d6000fd5b505050506104b17f0000000000000000000000000000000000000000000000000000000000000000337f000000000000000000000000000000000000000000000000000000000000000073ffffffffffffffffffffffffffffffffffffffff166370a08231306040518263ffffffff1660e01b8152600401808273ffffffffffffffffffffffffffffffffffffffff16815260200191505060206040518083038186803b15801561048057600080fd5b505afa158015610494573d6000803e3d6000fd5b505050506040513d60208110156104aa57600080fd5b5051610653565b5050505050505050565b6000826104ca57506000610531565b828202828482816104d757fe5b041461052e576040517f08c379a0000000000000000000000000000000000000000000000000000000008152600401808060200182810382526021815260200180610ab16021913960400191505060405180910390fd5b90505b92915050565b60008082116105a757604080517f08c379a000000000000000000000000000000000000000000000000000000000815260206004820152601a60248201527f536166654d6174683a206469766973696f6e206279207a65726f000000000000604482015290519081900360640190fd5b8183816105b057fe5b049392505050565b6040805173ffffffffffffffffffffffffffffffffffffffff80861660248301528416604482015260648082018490528251808303909101815260849091019091526020810180517bffffffffffffffffffffffffffffffffffffffffffffffffffffffff167f23b872dd0000000000000000000000000000000000000000000000000000000017905261064d9085906106e5565b50505050565b6040805173ffffffffffffffffffffffffffffffffffffffff8416602482015260448082018490528251808303909101815260649091019091526020810180517bffffffffffffffffffffffffffffffffffffffffffffffffffffffff167fa9059cbb000000000000000000000000000000000000000000000000000000001790526106e09084906106e5565b505050565b6060610747826040518060400160405280602081526020017f5361666545524332303a206c6f772d6c6576656c2063616c6c206661696c65648152508573ffffffffffffffffffffffffffffffffffffffff166107bd9092919063ffffffff16565b8051909150156106e05780806020019051602081101561076657600080fd5b50516106e0576040517f08c379a000000000000000000000000000000000000000000000000000000000815260040180806020018281038252602a815260200180610ad2602a913960400191505060405180910390fd5b60606107cc84846000856107d6565b90505b9392505050565b606082471015610831576040517f08c379a0000000000000000000000000000000000000000000000000000000008152600401808060200182810382526026815260200180610a566026913960400191505060405180910390fd5b61083a85610991565b6108a557604080517f08c379a000000000000000000000000000000000000000000000000000000000815260206004820152601d60248201527f416464726573733a2063616c6c20746f206e6f6e2d636f6e7472616374000000604482015290519081900360640190fd5b600060608673ffffffffffffffffffffffffffffffffffffffff1685876040518082805190602001908083835b6020831061090f57805182527fffffffffffffffffffffffffffffffffffffffffffffffffffffffffffffffe090920191602091820191016108d2565b6001836020036101000a03801982511681845116808217855250505050505090500191505060006040518083038185875af1925050503d8060008114610971576040519150601f19603f3d011682016040523d82523d6000602084013e610976565b606091505b5091509150610986828286610997565b979650505050505050565b3b151590565b606083156109a65750816107cf565b8251156109b65782518084602001fd5b816040517f08c379a00000000000000000000000000000000000000000000000000000000081526004018080602001828103825283818151815260200191508051906020019080838360005b83811015610a1a578181015183820152602001610a02565b50505050905090810190601f168015610a475780820380516001836020036101000a031916815260200191505b509250505060405180910390fdfe416464726573733a20696e73756666696369656e742062616c616e636520666f722063616c6c54686520616d6f756e74206f66204452432063616e207769746864726177206973206c6f776572207468616e207265716573746564536166654d6174683a206d756c7469706c69636174696f6e206f766572666c6f775361666545524332303a204552433230206f7065726174696f6e20646964206e6f742073756363656564436f6e7472616374206973206e6f7420616c6c6f77656420746f207370656e64207573657227732044522d504f442ea264697066735822122032f200fd2d9d686a5ccaa231397f3fa488409f82b8cab7d6619e1ba319d3e83364736f6c634300060c0033",
  "immutableReferences": {
    "22": [
      {
        "length": 32,
        "start": 985
      },
      {
        "length": 32,
        "start": 1019
      }
    ]
  },
  "source": "// SPDX-License-Identifier: AGPL-3.0-or-later\n\npragma solidity =0.6.12;\n\nimport \"@openzeppelin/contracts/token/ERC20/IERC20.sol\";\nimport \"@openzeppelin/contracts/token/ERC20/SafeERC20.sol\";\nimport \"@openzeppelin/contracts/math/SafeMath.sol\";\nimport \"./interfaces/IDigitalReserve.sol\";\n\ncontract DigitalReserveWithdrawal {\n    using SafeMath for uint256;\n\n    constructor(address _drcAddress) public {\n        drcToken = IERC20(_drcAddress);\n    }\n\n    IERC20 private immutable drcToken;\n\n    function withdraw(\n        address _digitalReserve,\n        uint8 percentage,\n        uint256 minAmountOut,\n        uint32 deadline\n    ) external {\n        IDigitalReserve digitalReserve = IDigitalReserve(_digitalReserve);\n        IERC20 drPod = IERC20(_digitalReserve);\n        uint256 drPodToWithdraw = drPod.balanceOf(msg.sender).mul(percentage).div(100);\n\n        require(drPod.allowance(msg.sender, address(this)) >= drPodToWithdraw, \"Contract is not allowed to spend user's DR-POD.\");\n        (, uint256 amountOut, ) = digitalReserve.getUserVaultInDrc(msg.sender, percentage);\n        require(amountOut >= minAmountOut, \"The amount of DRC can withdraw is lower than reqested\");\n\n        SafeERC20.safeTransferFrom(drPod, msg.sender, address(this), drPodToWithdraw);\n\n        digitalReserve.withdrawPercentage(percentage, deadline);\n\n        SafeERC20.safeTransfer(drcToken, msg.sender, drcToken.balanceOf(address(this)));\n    }\n}\n",
  "sourcePath": "/Users/fayexue/if-x-github/digital-reserve/contracts/DigitalReserveWithdrawal.sol",
  "compiler": {
    "name": "solc",
    "version": "0.6.12+commit.27d51765.Emscripten.clang"
  },
  "schemaVersion": "3.3.4",
  "updatedAt": "2021-05-16T06:48:04.966Z",
  "devdoc": {
    "kind": "dev",
    "methods": {},
    "version": 1
  },
  "userdoc": {
    "kind": "user",
    "methods": {},
    "version": 1
  }
}